:100000000C94170B0C94340B0C94340B0C94340B91
:100010000C94340B0C94340B0C94340B0C94340B64
:100020000C94340B0C94340B0C946B330C944334BD
:100030000C94411B0C94340B0C94340B0C94340B27
:100040000C94340B0C94340B0C94340B0C94340B34
:100050000C94340B0C9447330C94340B0C94340BE9
:100060000C94340B0C94340B0C94340B0C94340B14
:100070000C94340B0C94340B0C94340B0C94340B04
:100080000C94340B0C94340B0C94340B0C94340BF4
:100090000C94340B0C94340B0C94340B0C94340BE4
:1000A0000C94340B0C94340B0C94340B05010902A2
:1000B000A10185020901A1000509190129081500FE
:1000C0002501950875018102050109300931158165
:1000D000257F95027508810609381581257F9501D0
:1000E00075088106050C0A38021581257F95017572
:1000F000088106C0C005010980A101850319012AF4
:10010000B700150126B700950175108100C0050CD8
:100110000901A101850419012AA002150126A002E6
:10012000950175108100C005010906A1018506052C
:100130000719E029E71500250195087501810205D9
:1001400007190029EF1500250195F07501810205B9
:10015000081901290595057501910295017503910D
:1001600001C00660FF0961A1010962150026FF00B8
:100170009520750881020963150026FF00952075FA
:10018000089102C005010906A101050719E029E748
:1001900015002501950875018102950175088101F9
:1001A0000507190029FF150026FF0095067508812F
:1001B000000508190129059505750191029501753C
:1001C000039101C0E0CE9CF8FCFE80E0208080C05E
:1001D000C0E0E0F0F0F8FCFEFCF8F0E0E0C0C08029
:1001E000808001010101020238F7F7F7F7F7F731D4
:1001F0000810101010A0A0202040464F5F9F9C9038
:1002000080C0E0F0F8F8FCFCFEFFFFFFFFFFCFCF5F
:10021000FFFFBF7F7FBFFFFF7FFFFFFFFFFFFFFFEE
:10022000FFFF7EBEBCBC7CFCFEFEFFFFFF3F030762
:100230000F0F0F01070F8FC7E331382C0464F8FE4E
:10024000FFFFFFFFFF7FBF8F272727C7C74F4F8FB6
:100250008F9F9F1F1F3F3E3E3F7F7F7F7FFCFCFFA6
:1002600081FAFFE6E7FDFFFCF3FFFFFFFEF8E08009
:10027000C0603010180808081810306040C0868729
:1002800085C449693E0E131112123D2D252644687E
:1002900078589D9793E362343C2C26C7C569391979
:1002A0001D36A2E262343C2C44C8C8E9B9111113CE
:1002B00093E36327274747CFCF0F08101010102074
:1002C0002020204040404080808080C07F0000008F
:1002D000FEFF3F0000000000000000FFBFFFFFFF27
:1002E000FFFFFFFF1F000000000000801FF8FFFF5E
:1002F000FFFFFFFF3F000000000000F0FFFFFFFFD7
:10030000FFFFFFFFFFFFFF00000000E0CE9CF8FCB6
:10031000FE80E0208080C0C0E0E0F0F0F8FCFEFC51
:10032000F8F0E0E0C0C080808001010101020238E5
:10033000F7F7F7F7F7F731081010101020202020FA
:10034000404040408080F0F8DC363EEEFCE09CFE11
:10035000FFFFFFFFFFCFCFFFFFBF7F7FBFFFFF7F0D
:10036000FFFFFFFFFFFFFFFFFFFEFEFCFCFCFCFEAC
:10037000FEFFFFFF3F808003070F0F0F0180C0E0EB
:1003800030382C44C4C4687859899191D3F3A3239D
:100390002727C7C74F4F8F8F9F9F1F1F3F3E3E3F4F
:1003A0007F7F7F7FFCFCFFFFFFFFFFFFFFFFFFFF63
:1003B000FFFFFFFEF8E03F1F0783C0E0E0C080C002
:1003C000603010180808081810306040C086878513
:1003D000C449693E0E131113123C2C262745687838
:1003E000589D9793E362343C2C26C7C56939191D83
:1003F00036A2E26224183C7E7F7F7FBF3F1F1F8FA3
:10040000E76327274747CFCF0F081010111121238B
:1004100023214040404080808080C07F000000FE5B
:10042000FF3F0000000000000000FFBFFFFFFFFFD4
:10043000FFFFFF1F060000000000801FE0FFFFFF1E
:10044000FFFFFF3FFF0000000000F0FFFFFFFFFF86
:10045000FFFFFFFFFFFF00000000E0CE9CF8FCFE66
:1004600080E0208080C0C0E0E0F0F8FCFEFFFEFCF1
:10047000F8E0E0E0E0E0C0C0C080800101010102DE
:100480000238F7F7F7F7F7F73108101010102020AF
:1004900020204040404080808080C0E0F0F8F8FCA0
:1004A000FCFEFFFFFFFFFFCFCFFFFFBF7F7FBFFF40
:1004B000FF7FFFFFFFFFFFFFFFFFFFFEFEFCFCFED5
:1004C000FEFEFFFFFFFF3F0F0603070F0F0F018028
:1004D000C0E030382C0464F8FEFFFFFFFFFF7FBF51
:1004E0008F272727C7C74F4F8F8F9F9F1F1F3F3EC5
:1004F0003E3F7F7F7F7FFCFCFFFFFFFFFFFFFFFF93
:10050000FFFFFFFFFFFEF8E080C060301018080812
:10051000081810306040C0868785C449693E0E13B4
:100520001112123D2D2526446878589D9793E36259
:10053000343C2C26C7C56939191D36A2E26224183D
:100540003C7E7F7F7FBF3F1F1F8FE7632727474783
:10055000CFCF0F0810101010202020204040404026
:1005600080808080C07F000000FEFFFF010000004F
:1005700000000000FFBFFFFFFFFFFFFFFF7F000045
:1005800000000000801FE0FFFFFFFFFFFF3F0000B3
:1005900000000000F0FFFFFFFFFFFFFFFFFFFFFF76
:1005A00000000000E0CE9CF8FCFE80E0208080C0CF
:1005B000E0F0F8FCFEFCF8F0E0C0C0808080800134
:1005C000010101020238F7F7F7F7F7F731081010C9
:1005D0001010202020204040404080808080C0E0DB
:1005E000F0F8F8FCFCFCFEFEFFFFFFCFCFFFFFBFE3
:1005F0007F7FBFFFFF7FFFFFFFFFFFFFFFFFFEFCCF
:10060000FCF8F8F8F8F8FCFCFCFC3C1C03070F0FA6
:100610000F0180C0E030382C0464F8FEFFFFFFFFBC
:10062000FF7FBF8F272727C7C74F4F8F8F9F9F1FE2
:100630001F3F3E3E3F7F7F7F7FFCFCFFFFFFFFFFB2
:10064000FFFFFFFFFFFFFFFFFEF8E080C0603010FC
:10065000180808081810306040C0868785C44969AA
:100660003E0E131112123D2D2526446878589D9791
:1006700093E362343C2C26C7C56939191D36A2E2C2
:100680006224183C7E7F7F7FBF3F1F1F8FE7632759
:10069000274747CFCF0F08101010102020202040F0
:1006A00040404080808080C07F000000F0FF3F001D
:1006B00000000000000000FFBFFFFFFFFFFFFFFF83
:1006C0003F000000000000801FE0FFFFFFFFFFFF72
:1006D0003F000000000000F0FFFFFFFFFFFFFFFFF3
:1006E000FFFFFF00000000E0CE9CF8FCFE80E02051
:1006F0008080C0E0F0F8FCFEFCF8F0E0C0C0808034
:10070000808001010101020238F7F7F7F7F7F731AE
:100710000810101010202020204040404080808091
:1007200080C0E0E0F0F0F8F8FCFCFEFFFFFF9F9FC8
:10073000FFFF7FFFFF7FFFFFFFFFFFFFFFFFFFFFC9
:10074000FFFEFCFCF8F8F8F8FCFCFEFEFE7E03075A
:100750000F0F0F0180C0E030382C0464F8FEFFFF5B
:10076000FFFFFF7FBF8F272727C7C74F4F8F8F9F61
:100770009F1E1E3F3D3D3E7F7F7F7FF9F9FFFFFFBC
:10078000FFFFFFFFFFFFFFFFFFFFFCF0C080C06027
:100790003010180808081810306040C0868785C4DB
:1007A00049693E0E131112123D2D252644687858D2
:1007B0009D9793E362343C2C26C7C56939191D36D1
:1007C000A2E26224183C7E7F7F7FBF3F1F1F8FE71E
:1007D0006327274747CFCF0F081010101020202085
:1007E000204040404080808080C07F000000F0FFBB
:1007F0003F0000000000000000FFBFFFFFFFFFFF01
:10080000FFFF1F000000000000801FE0FFFFFFFF50
:10081000FFFF3F000000000000F0FFFFFFFFFFFFB1
:10082000FFFFFFFFFF00000000E0CE9CF8FCFE8011
:10083000E0208080C0E0F0F8FCFEFFFEFCF8F0E075
:10084000C0C0C0808001010101020238F7F7F7F74C
:10085000F7F73108101010102020202040404040B1
:1008600080808080C0E0E0F0F0F8F8FCFCFEFFFF44
:10087000FF9F9FFFFF7FFFFF7FFFFFFFFFFFFFFF48
:10088000FFFFFFFFFFFEFEFCFCFCFCFEFEFFFFFF88
:100890003F03070F0F0F0180C0E030382C0464F8CD
:1008A000FEFFFFFFFFFF7FBF8F272727C7C74F4FE1
:1008B0008F8F9F9F1E1E3F3D3D3E7F7F7F7FF9F9BB
:1008C000FFFFFFFFFFFFFFFFFFFFFFFFFFFCF0C089
:1008D00080C0603010180808081810306040C086CA
:1008E0008785C449693E0E131112123D2D252644F9
:1008F0006878589D9793E362343C2C26C7C56939C4
:10090000191D36A2E26224183C7E7F7F7FBF3F1F05
:100910001F8FE76327274747CFCF0F08101010100E
:10092000202020204040404080808080C07F000008
:1009300000F8FF3F0000000000000000FFBFFFFFC5
:10094000FFFFFFFFFF1F000000000000801FE0FF0F
:10095000FFFFFFFFFF3F000000000000F0FFFFFF70
:10096000FFFFFFFFFFFFFFFF00000000E0CE9CF84D
:10097000FCFE80E0208080C0C0E0E0F0F8FCFEFFDC
:10098000FEFCF8E0E0E0E0E0C0C0C08080010101D2
:1009900001020238F7F7F7F7F7F7310810101010D7
:1009A000202020204040404080808080C0E0F0F83F
:1009B000F8FCFCFEFFFFFFFFFFCFCFFFFFBF7F7FF5
:1009C000BFFFFF7FFFFFFFFFFFFFFFFFFFFEFEFCFC
:1009D000FCFCFCFEFEFFFFFF3F03070F0F0F018033
:1009E000C0E030382C0464F8FEFFFFFFFFFF7FBF3C
:1009F0008F272727C7C74F4F8F8F9F9F1F1F3F3EB0
:100A00003E3F7F7F7F7FFCFCFFFFFFFFFFFFFFFF7D
:100A1000FFFFFFFFFFFEF8E080C0603010180808FD
:100A2000081810306040C0868785C449693E0E139F
:100A30001112123D2D2526446878589D9793E36244
:100A4000343C2C26C7C56939191D36A2E262241828
:100A50003C7E7F7F7FBF3F1F1F8FE763272747476E
:100A6000CFCF0F0810101010202020204040404011
:100A700080808080C07F000000FEFFFF010000003A
:100A800000000000FFBFFFFFFFFFFFFFFF1F000090
:100A900000000000801FE0FFFFFFFFFFFF3F00009E
:100AA00000000000F0FFFFFFFFFFFFFFFFFFFFFF61
:100AB0000000000000DA0281FFD9F1DB20A4A62E9D
:100AC000AF00A0C000A1C800AED580A81FD30040D1
:100AD0008D14200000AE09025B00030100A0FA099A
:100AE000040000010301010009211101000122405D
:100AF000000705810308000109040100020300004A
:100B000000092111010001222200070582032000B3
:100B1000010705030320000109040200010300008E
:100B20000009211101000122B600070584032000FD
:100B300001120100020000000871710100000101B2
:100B40000200011A0346006100750078006D006123
:100B5000006300200050006C007500730000001C52
:100B6000034D0065006300680062006F0061007261
:100B70000064007300200055004B000000040309CE
:100B8000041E001F00204221002200230024002513
:100B900000260028402700370049004A004B424CFD
:100BA000004D004E002A0052002800504051004FD6
:100BB00000007C000001002378257827782478261F
:100BC000782878207821782278A900AA00DA00D93C
:100BD000002778287800AF07087F0807003E5B4FA2
:100BE0005B3E003E6B4F6B3E001C3E7C3E1C001883
:100BF0003C7E3C18001C577D571C001C5E7F5E1C11
:100C00000000183C180000FFE7C3E7FF00001824AD
:100C1000180000FFE7DBE7FF0030483A060E002629
:100C20002979292600407F05050700407F05253FDB
:100C3000005A3CE73C5A007F3E1C1C0800081C1C64
:100C40003E7F0014227F2214005F5F005F5F00067A
:100C5000097F017F00006689956A006060606060BE
:100C60000094A2FFA2940008047E04080010207ED5
:100C700020100008082A1C0800081C2A0808001E6A
:100C800010101010000C1E0C1E0C0030383E3830B6
:100C900000060E3E0E060000000000000000005F8F
:100CA000000000000700070000147F147F140024D8
:100CB0002A7F2A1200231308646200364956205006
:100CC00000000807030000001C2241000000412230
:100CD0001C00002A1C7F1C2A0008083E080800008F
:100CE00080703000000808080808000000606000FC
:100CF000002010080402003E5149453E0000427F9A
:100D00004000007249494946002141494D330018CD
:100D100014127F10002745454539003C4A494931A6
:100D20000041211109070036494949360046494921
:100D3000291E0000001400000000403400000000E4
:100D40000814224100141414141400004122140841
:100D5000000201590906003E415D594E007C121106
:100D6000127C007F49494936003E41414122007FC3
:100D70004141413E007F49494941007F090909013C
:100D8000003E41415173007F0808087F0000417F09
:100D90004100002040413F01007F08142241007FB4
:100DA00040404040007F021C027F007F0408107F0B
:100DB000003E4141413E007F09090906003E415184
:100DC000215E007F0919294600264949493200035E
:100DD000017F0103003F4040403F001F2040201F93
:100DE000003F4038403F0063140814630003047858
:100DF0000403006159494D4300007F414141000215
:100E00000408102000004141417F00040201020457
:100E100000404040404000000307080000205454B8
:100E20007840007F2844443800384444442800383F
:100E30004444287F0038545454180000087E0902A6
:100E40000018A4A49C78007F080404780000447D66
:100E50004000002040403D00007F1028440000007A
:100E6000417F4000007C04780478007C080404780A
:100E700000384444443800FC182424180018242462
:100E800018FC007C0804040800485454542400044E
:100E9000043F4424003C4040207C001C2040201C97
:100EA000003C4030403C004428102844004C9090C6
:100EB000907C004464544C4400000836410000001B
:100EC0000077000000004136080000020102040221
:100ED000003C2623263C000000000000004040406B
:100EE000F0F8F8FF38FFF8F83FF8F8FF38FFF8F8A7
:100EF000F040404000000000000080C0C0C0800002
:100F000000C0C08000000080C0C000C0C0000080E1
:100F1000C0C00000000000C0C0C0C0C000C0C00011
:100F200000000000000000000000000000000000C1
:100F300000000000000000000000000000000000B1
:100F400000000000000000000000000000000000A1
:100F5000000000000000C0F0F8FC3E1E060100008A
:100F6000007F4141417F007F4141417F000080C0BF
:100F7000E07E5B4F5BFEC00000C000DCD7DEDEDE43
:100F8000D7DC00C0000000000000000000000000EE
:100F90000000000000000000000000000049494976
:100FA000FFFFFFFFE0DFBFBF00BFBFDFE0FFFFFFCE
:100FB000FF49494900000000001F3F6060E0BF1F7B
:100FC000007F7F071E381E077F7F007F7F0E1F3B3D
:100FD000716000000000007F7F0C0C0C007E7E0022
:100FE0007F7E0303007F7E03037E7E03037F7E00FC
:100FF0000F3E703C063C703E0F00327B49493F7EFD
:10100000007F7E0303001E3F69696F260000000019
:10101000000000000000030F1F3F3C7870600000DC
:10102000007F4141417F007F4141417F00307B7F14
:101030007830202030787F3B0003000F7F0F0F0FA8
:101040007F0F00030000000000000000000000000F
:10105000000000000000000000000000000101018D
:10106000070F0F7F0F7F0F0F7E0F0F7F0F7F0F0F69
:101070000701010100000000000000000000010164
:101080000000000000000000000000000000000060
:101090000000000000000000000000000000000050
:1010A0000000000000000000000000000000000040
:1010B0000000000000000000000000000000000030
:1010C0000000000000000000000000000000000020
:1010D0000000000000000000000000000000000010
:1010E0000000000000000000000000000000000000
:1010F00000000000000000000000000000000000F0
:1011000000000000000000000000000000000000DF
:10111000000000000000002223252628292A2C2D6B
:101120002F3032333536383A3B3D3E404243454717
:10113000494A4C4E5051535557595A5C5E6062644F
:101140006668696B6D6F71737577797B7D7F81835D
:101150008587898A8C8E90929496989A9C9E9FA15E
:10116000A3A5A7A8AAACAEAFB1B3B4B6B8B9BBBC7F
:10117000BEBFC1C2C3C5C6C7C9CACBCCCDCED0D1F4
:10118000D2D2D3D4D5D6D7D7D8D9D9DADADBDBDBEC
:10119000DCDCDCDCDCDDDDDDDDDCDCDCDCDCDBDB8D
:1011A000DBDADAD9D9D8D7D7D6D5D4D3D2D2D1D0E1
:1011B000CECDCCCBCAC9C7C6C5C3C2C1BFBEBCBBDE
:1011C000B9B8B6B4B3B1AFAEACAAA8A7A5A3A19F56
:1011D0009E9C9A98969492908E8C8A89878583811A
:1011E0007F7D7B79777573716F6D6B6968666462FB
:1011F000605E5C5A5957555351504E4C4A494745C9
:101200004342403E3D3B3A3836353332302F2D2C69
:101210002A292826252322FFAA7F55400001010103
:1012200001010101010102020202020202020203A3
:101230000303030303030304040404040404050573
:101240000505050606060606070707070708080836
:1012500008090909090A0A0A0B0B0B0C0C0C0D0DE5
:101260000D0E0E0E0F0F0F1010111111121213137D
:101270001414151516161717181819191A1A1B1BF6
:101280001C1D1D1E1E1F2020212222232424252652
:1012900026272829292A2B2C2D2D2E2F303132328A
:1012A000333435363738393A3B3C3D3E3F40414296
:1012B000434445464748494A4C4D4E4F505153547C
:1012C000555658595A5B5D5E5F6162646566686930
:1012D0006B6C6D6F7072737577787A7B7D7E8082B0
:1012E000838587888A8C8E8F91939596989A9C9EF9
:1012F000A0A2A3A5A7A9ABADAFB1B3B5B7BABCBE09
:10130000C0C2C4C6C9CBCDCFD1D4D6D8DBDDDFE2D5
:10131000E4E7E9EBEEF0F3F5F8FAFDFF00047F3FB8
:101320001F643214643214783C1E1E140A05208196
:1013300082838420A1A2A3A420C1C2C3C400202010
:101340009596202020B5B620002020999A202020B4
:10135000B9BA200020209798202020B7B82000009C
:10136000000000000000000000000000000000007D
:10137000000000000000000000000000000000006D
:101380000000000000000000007CFEFEFEFEFE7C6F
:10139000000000000000000000000000000000004D
:1013A0000000000000FC06F6F6F6F6F6F6FE06F67D
:1013B000F6F6F6F606FE06FEFEFEFEFE06FE067ECD
:1013C000FEFEFE7E06FE06F6F606F6F606FE06F6BD
:1013D000F6F6F6F606FE06F6F6F6F6F6F6FEFC7CF1
:1013E000FEFEFEFEFE7C007CFEFEFEFEFE7C007C21
:1013F000FEFEFEFEFE7C007CFEFEFEFEFE7C007C11
:10140000FEFEFEFEFE7C0000007CFEFEFEFEFE7C7C
:10141000007CFEFEFEFEFE7C007CFEFEFEFEFE7CF0
:101420000000000000FF00FDFDFDFDFDFDFF00FDD3
:10143000FDFDFDFD00FF007F7F7F7F7F00FF07F246
:10144000FAF8FAF207FF00FFFF00FFFF00FF00FDC0
:10145000FDFDFDFD00FF007F7F7F7F7F7FFFFF7C25
:10146000FEFEFEFEFE7C0000000000000000007C8E
:10147000FEFEFEFEFE7C0000000000000000007C7E
:10148000FEFEFEFEFE7C0000007CFEFEFEFEFE7CFC
:101490000000000000000000007CFEFEFEFEFE7C5E
:1014A0000000000000FFFFFFFFFFFFFFFFFFFFFF47
:1014B000FFFFFF017D7D7D7D7D01FF01FFFFFFFFC0
:1014C000FFFFFF01FFFFFFFFFF01FF017D7D7D7D2E
:1014D0007D7DFFFFFFFFFFFFFFFFFFFFFFFFFF7CA3
:1014E000FEFEFEFEFE7C0000000000000000007C0E
:1014F000FEFEFEFEFE7C0000000000000000007CFE
:10150000FEFEFEFEFE7C0000007CFEFEFEFEFE7C7B
:10151000007CFEFEFEFEFE7C007CFEFEFEFEFE7CEF
:1015200000000000007FFFFFFFFFFFFFFFFFFFFF46
:10153000FFFFFFC0FFFFFFFFFFFFFFC0DFDFDFDFB9
:10154000DFDFFFC0DFDFDFDFDFC0FFDFDFDFDFDFA9
:10155000DFC0FFFFFFFFFFFFFFFFFFFFFFFF7F2059
:101560005343522000204341502000204E554D202F
:10157000004C4159455200000000000000000000EE
:10158000000000000000000000000000000000005B
:1015900000000000000000000000007E0F00D4FFEB
:1015A000FFFFC70000007800000000000000002AD4
:1015B0002B280000000000000000000000000000D8
:1015C000000029000000002C1E3420212224342693
:1015D00027252E362D3738271E1F2021222324258C
:1015E000263333362E37381F0405060708090A0B41
:1015F0000C0D0E0F101112131415161718191A1BB3
:101600001C1D2F3130232D350405060708090A0B50
:101610000C0D0E0F101112131415161718191A1B92
:101620001C1D2F3130354C524553455400001124B8
:101630001FBECFEFDAE0DEBFCDBF11E0A0E0B1E02A
:10164000E4E1FEE602C005900D92A43CB107D9F793
:1016500025E0A4ECB1E001C01D92A832B207E1F789
:101660000E949B2A0C948C360C940000982F829533
:101670008F70882311F0982F84E0292F26952695C6
:10168000222311F08E5F922F969591118F5F08950E
:101690008093EA0408958093EB04089521E030E0FC
:1016A00001C0220F8A95EAF78091EB04822B0E94F9
:1016B0004B0B089521E030E0A90102C0440F551FF3
:1016C0008A95E2F7CA0180959091EB0489230E94E4
:1016D0004B0B08959B01677091E001C0990F6A95CB
:1016E000EAF763E0369527956A95E1F7B901660F49
:1016F000771F260F371FFA01E20FF31F40E050E07B
:10170000682F70E08191DF0111979B01042E02C0C8
:10171000369527950A94E2F72170219528272923E9
:1017200028272C934F5F5F4F4330510559F7089599
:101730009C01A82FA77083E0369527958A95E1F73D
:10174000C901880F991F820F931FFB01E80FF91F32
:1017500040E050E080E0219130E00A2E02C0369552
:1017600027950A94E2F721703327042E01C0220F37
:101770000A94EAF7822B4F5F5F4F4330510559F7C8
:101780000895482F862F943080F4433068F4292F31
:1017900030E0B901660F771F620F731F640F711D70
:1017A0004FEC54E00E946A0B08959C5F9230E0F782
:1017B000642F70E04CEC54E0F5CF482F943080F467
:1017C0008330A8F4292F30E0C901880F991F820FB8
:1017D000931F6FEC74E0840F911D0E94980B089585
:1017E0009C5F923020F46CEC74E090E0F6CF80E0E7
:1017F00008959091EB0421E030E0F90101C0EE0F73
:101800008A95EAF7D90102C0AA0FBB1F6A95E2F7D1
:10181000EA2B01C0220F4A95EAF7892F8E23E8139D
:1018200005C0892F822B0E944B0B08952095822F93
:101830008923F9CF8091F1049091F004981301C0AD
:1018400008958F5F8770FACF90911E019923E1F080
:101850009091ED0497FF18C0E82FE695E695E69580
:10186000803FF0F4F0E0EA53FE4F877021E030E073
:10187000A90102C0440F551F8A95E2F7CA0180955D
:101880009281892382830895E8ECF1E09191891394
:1018900003C0DF0111971C9251E0EE3CF507B1F750
:1018A00008952091EC04809582238093EC04982F76
:1018B0009770911113C030E0482F082E000C550B83
:1018C0002417350759F09091EE0492FF07C08595D3
:1018D000859585950E945A0B1092EC040895982FD7
:1018E00090958091E80489238093E804089580917D
:1018F000E90481111092E9040895803E9105D1F127
:10190000C8F48133910509F47FC048F48932910508
:1019100009F46FC08A32910509F47DC008958933B6
:101920009105E1F082389105C9F08533910509F4FC
:101930005BC00895843E9105D1F148F4823E910543
:1019400031F1833E910541F181EE90E00895863EAC
:101950009105C1F1873E9105E1F108952091ED04D3
:101960002370211165C02091EE0423FF14C089E289
:1019700090E008952091ED0420FD43C03091EE04E5
:1019800030FF09C024FF4EC080E090E00895209110
:10199000ED0422FDF7CF08952091ED0422FD45C00E
:1019A0003091EE0430FD44C024FFF5CFEDCF2091FF
:1019B000EE0421FFF0CF8091ED0484FDE5CF87EEAA
:1019C00090E008952091ED0423FFE5CF24FDDCCFC6
:1019D000F6CF2091ED0423FD2EC03091EE0431FFAF
:1019E000E3CF84EE90E008952091ED0425FFD3CF5E
:1019F000BECF2091ED0425FD21C02091EE0423FFF0
:101A0000CACF89E390E008952091ED0426FFC3CF6B
:101A10008AE290E008952091ED0426FFBCCF81E397
:101A200090E0089583EE90E0089582EE90E00895AE
:101A300080EE90E0089586EE90E0089585E390E0D2
:101A4000AACF2091ED0422FF06C0982F98719830FC
:101A5000C1F4877F84609091EE04392F31709270C9
:101A600023FF21C0482F4871483191F4877E84615B
:101A70009923B1F0982F9171913191F48E7E886104
:101A80000FC0982F9471943031F78B7F8860E3CF2B
:101A9000482F4471443139F48B7E8861911118C00C
:101AA00024FD877E0895332369F0382F387138304C
:101AB00019F4877F8160DCCF382F3171313011F418
:101AC0008E7F8860992361F3982F9871983191F6F1
:101AD000877E8161E5CF1F93CF93DF930E947D0CBA
:101AE000EC01811522E5920708F053C0811540E50D
:101AF000940708F0DDC0803E9105F8F48D3C910517
:101B000008F0AEC0883A910580F4853A910508F056
:101B100099C08130910521F00497813A910550F4E4
:101B2000CE01DF91CF911F910895885A910949976D
:101B300008F48BC0C0E0D0E0F3CF811550E49507E6
:101B4000F8F4C11580E2D80708F0CBC0C83ED10533
:101B500038F3CE019A9581159F4160F78D2F0E9431
:101B6000210D182FCE0199270E947D0C212F30E0E6
:101B7000322F2227E901CC27DF71C82BD92BD0CFF8
:101B800099270E947D0CCC27DF70C82BD92BD06AF7
:101B9000C7CF803842E59407C8F5803652E59507EF
:101BA00008F067C0C03482E5D807B0F08C2F869566
:101BB0008695877020E2829FC0011124C37021E0C6
:101BC00030E0A90102C0440F551FCA95E2F7EA01AF
:101BD000C82BD92BDC68A4CFC03252E5D50708F05A
:101BE00041C08C2F8695869520E2829FC0011124EA
:101BF000C37021E030E0A90102C0440F551FCA950F
:101C0000E2F7EA01C82BD92BDD688ACF803C52E588
:101C1000950760F48F71C03AD24508F03FC090E05C
:101C2000982F8827EC01C46FD06A7ACF805C9245E8
:101C3000809708F07FCFDC2FCC27CC27DF71C06FD7
:101C4000D06A6ECFA497D0646BCFC85AD0E0CC0FC7
:101C5000DD1FC257DE4F0990D881C02DD46460CFFC
:101C6000D0655ECFCF71D0E0DC2FCC27C16FD06ABA
:101C700057CF86958695877020E2829FC0011124F8
:101C8000C37021E030E0A90102C0440F551FCA957E
:101C9000E2F7EA01C82BD92BDA6842CF0E94210D66
:101CA000C82FD0E0DC2FCC27CC27DF71D06238CF13
:101CB0008F710E94210D65E0D695C7956A95E1F771
:101CC000CF70D0E0DC2FCC27282F30E084FF05C078
:101CD00054E0220F331F5A95E1F7C22BD32BD06962
:101CE0001FCF8D2F8F710E94210D182FCE019927A4
:101CF0000E947D0C212F30E0322F222722273F71B6
:101D0000282B392BE901D2CF80E00895F894E82FF1
:101D1000E295EF70F0E041A18F7021E030E0B90171
:101D200002C0660F771F8A95E2F7CB01962F909538
:101D3000942391A392A1892B82A378940895089566
:101D40008091D70480FD14C081FD14C082FD16C0AF
:101D50008091D604882381F08E3180F420E5829F23
:101D6000C00111246EE170E00E94DE35862F0895D7
:101D700084E1089588E2089588E0089580E5089553
:101D80008091D70480FD17C081FD17C082FD19C066
:101D90008091D504882399F0883298F428E0829FB6
:101DA000C001112468E270E00E94DE356115710502
:101DB00051F0862F089562E0FCCF64E0FACF61E035
:101DC000F8CF68E0F6CF81E00895A0E0B0E0EBEE58
:101DD000FEE00C94A335E901E42FF0E0E45EFD4E53
:101DE00061110BC0E4919E2F8E2F8983E8839A8323
:101DF000CDB7DEB7EAE00C94BF35282F30E0062FD0
:101E000010E0F491EF2F86E0829F6001839FD00C59
:101E10001124EE24EA94F12CC601B7010E94873503
:101E2000220F331F45E5469FC001479F900D1124A7
:101E3000281B390B822F880F280FC701801B910B9D
:101E4000F89FA001F99F500D1124952F209F50015C
:101E5000219FB00C1124AB2CBB24D701AA19BB09BC
:101E60005D01FA9DD001FB9DB00D11248B2F570110
:101E7000A21AB1089501209F5001219FB00C309FFC
:101E8000B00C1124AB2CBB24EA18FB08FE9D90017A
:101E9000FF9D300D112463307105C9F01CEFC11690
:101EA00013E0D10650F46130710509F49ECF623021
:101EB000710589F08E2FE32F98CF6430710571F092
:101EC00066307105B9F3E52F9B2F8F2F8ECFEB2F47
:101ED000852F9F2F8ACF852F932F87CF832FE52F95
:101EE000F8CF8091E304823028F48170826080937F
:101EF000E30408958834E8F381708664F8CFFA012A
:101F0000882311F009950895FB01FCCF9B01FB018B
:101F1000E258FD4F90819817C1F0808385E0369597
:101F200027958A95E1F781E090E0AC0102C0440F6B
:101F3000551F2A95E2F780917C0290917D02842BB7
:101F4000952B90937D0280937C020895A0E0B0E0F1
:101F5000ECEAFFE00C94A1354B015C01C0E0D0E05D
:101F600000E010E0EE24E394F12CFE0183E0F6950E
:101F7000E7958A95E1F7E80DF91DE4918C2F8770BC
:101F8000970102C0220F331F8A95E2F7E223EE2366
:101F9000B1F068013FEFC31AD30AF801EA0DFB1D47
:101FA0008491BE010E94860F86012196C11582E0B0
:101FB000D807D9F6CDB7DEB7ECE00C94BD35BE013D
:101FC00080E00E94860FF1CFE091AA04F091AB046B
:101FD000309729F00190F081E02D0995089580E077
:101FE0000895A3E0B0E0E7EFFFE00C94AB359C016F
:101FF00080911E0290911F0282179307A1F03093E7
:102000001F0220931E02E091AA04F091AB043097C6
:1020100051F083E089833B832A830680F781E02D9A
:10202000CE01019609952396E2E00C94C735A3E012
:10203000B0E0EDE1F0E10C94AB359C0180911C0225
:1020400090911D0282179307A1F030931D022093F7
:102050001C02E091AA04F091AB04309751F084E0A7
:1020600089833B832A830680F781E02DCE01019688
:1020700009952396E2E00C94C7359C0180911E01DE
:102080008823C1F08091ED0487FF14C0862F8695C8
:1020900086958695603FF8F4F901E80FF11D6770A9
:1020A00021E030E001C0220F6A95EAF78281822B9D
:1020B00082830895F90132968FEF90E04191641781
:1020C00051F08F3F19F4411101C0892F9F5F963065
:1020D000A9F78F3F09F40895280F311D87FD3A9520
:1020E000F90162830895A4E0B0E0E9E7F0E10C941F
:1020F000AB358FB7F89420911802309119024091B6
:102100001A0250911B0229833A834B835C838FBF51
:1021100069817A818B819C812496E2E00C94C73599
:10212000A4E0B0E0E6E9F0E10C94A935462F572F82
:10213000BC012FB7F8948091180290911902A091D8
:102140001A02B0911B022FBF8C019D01041B150BBD
:10215000260B370BC901B8012496E4E00C94C53571
:1021600087E797E7909301088093000888E19AE059
:102170000FB6F894A895809360000FBE909360000E
:10218000FFCF809117020895FC019B018091F5011A
:102190009091F6018617970740F0672B29F48091FC
:1021A000E8008E778093E800C90140E0009741F491
:1021B000411106C08091E80082FF2FC080E00895A1
:1021C0002091A3042223A9F12530A9F12091E80050
:1021D00023FD2DC02091E80022FDECCF2091E800E6
:1021E00020FFE4CF3091F3002091F200009719F026
:1021F0002830310558F041E02830310509F040E041
:102200002091E8002E772093E800D0CF41914093B1
:10221000F10001972F5F3F4FE9CF8091A3048823FE
:1022200041F0853041F08091E80083FFC3CF81E029
:10223000089582E0089583E008958091EF0187FF7B
:1022400013C08091E80082FF06C08091E8008B7780
:102250008093E80004C08091A3048111F2CF089517
:102260008091A3048823D9F38091E80080FFF8CF00
:102270008091E8008E77ECCF2091E4003091E5006A
:1022800095E6A9018091EC008170882331F080915E
:10229000E80080FF06C080E008952091E80022FD5C
:1022A0001BC08091A304882391F0853091F0809128
:1022B000EB0085FD10C02091E4003091E50042174D
:1022C000530701F391509111DCCF84E0089582E02F
:1022D000089583E0089581E00895E8EDF0E08081BD
:1022E0008E7F80831092E2001092DA001092E1005B
:1022F000A0EEB0E08C9181608C9380818F77808399
:1023000019BCA7EDB0E08C918E7F8C9380818F7E7D
:1023100080831092EE010895982FE42FE27090933D
:10232000E900891308C0762F242F50E0E11111C075
:1023300091E0980FF4CF7091EC002091ED00509156
:10234000F00021FD06C09F5F973049F78093E900B8
:1023500008953091EB003E7F3093EB003091ED001B
:102360003D7F3093ED003091EB0031603093EB0016
:102370007093EC002093ED005093F0002091EE005C
:1023800027FDE1CF0895A0E0B0E0E9ECF1E10C9485
:10239000A535C8EDD0E088818F7E8883E7EDF0E039
:1023A00080818160808384E082BF81E08093EE0140
:1023B00088818E7F888302EE10E0F80110821092EF
:1023C000DA0081EEC82ED12CF601108288818F7739
:1023D000888388818068888388818F7D888319BC01
:1023E0001092A3041092ED0110925F021092EC0182
:1023F00090EEE92EF12CF70180818B7F808388811C
:102400008160888342E060E080E00E948C11F601E8
:1024100080818E7F8083F8018081816080838081CC
:1024200088608083F70180818E7F808388818061CE
:102430008883CDB7DEB7E8E00C94C135E091F104B4
:102440009091F00426E0E91302C080E00895AE2FD9
:10245000B0E02E9FF0011124EE50FB4F3181361376
:1024600006C03081381303C03281341304C0FD012B
:102470003196E770E8CF81E008958091E30480FD14
:102480000AC0EBE4F2E0118210821282339652E02D
:10249000E735F507C1F7269A35B13F7B25B12064B2
:1024A0004FB7F8948BE492E0FC010196508168E00C
:1024B00025B9000000C057FF35B9550F000000C016
:1024C00000C000C035B900C06A9591F752E0873569
:1024D000950751F74FBF8FE594E00197F1F700C0E2
:1024E00000000895A0E0B0E0E8E7F2E10C94A53523
:1024F0007C010BE412E0C0E0D0E0F7019481609130
:10250000E5048091E404C230D1057CF42196980161
:102510002D5F3F4F690198014091E604911101C080
:1025200040E00E94E50E8601E8CF98014091E60464
:10253000911140E00E94E50E239739F00D5F1F4F87
:1025400033E0C32F80E0D82FD8CF0E943D12F7018F
:10255000848190E00196817099278483CDB7DEB79E
:10256000E8E00C94C135EF92FF921F93CF93DF9375
:10257000EC018BE4E82E82E0F82E10E08C819701CC
:102580004091E6046091E504810F0E94E50E115C24
:1025900083E0E80EF11C1C3F89F70E943D129A81EE
:1025A0008C8190FF08C08F5F8C83DF91CF911F914A
:1025B000FF90EF9008958150F7CFA0E0B0E0E3EEF8
:1025C000F2E10C94A535FC018281DD24D39480FFD7
:1025D00002C0DD24DA94CBE4D2E000E010E01982FE
:1025E00018821A8294E0E92EF12CC12C80914A02C3
:1025F0008C0D8530BCF18370082E000C990B801770
:10260000910791F48091E6048E9DA0018F9D500D5D
:10261000112455954795559547959E016091E50480
:102620008091E4040E94E50ECD0CF1E0EF1AF10870
:10263000E114F104D9F60F5F1F4F23960430110502
:1026400071F60E943D1280914A0291E0D9120EC0AB
:10265000882379F0815080934A02CDB7DEB7E8E055
:102660000C94C13587FFC8CF8C5FC6CF8F5F837056
:10267000F2CF83E0F0CF0F931F93CF93DF93CBE4A0
:10268000D2E0FE01118210821282339682E0E73599
:10269000F807C1F700E010E080914902082E000C15
:1026A000990B081719078CF180910801082E000C6E
:1026B000990B801791074CF19E014091E6046091BF
:1026C000E5048091E4040E94E50E0F5F1F4F2396FE
:1026D0000430110509F70E943D1280910701909185
:1026E0004902980F9093490220910801280F2093E6
:1026F0000801121614F493301CF0819580930701A1
:10270000DF91CF911F910F910895198218821A823B
:10271000DCCF9091E30490FF0CC0EBE4F2E0818306
:1027200060834283339692E0E735F907C1F70E9450
:102730003D120895A3E0B0E0E0EAF3E10C94A9357E
:102740008C018091480281110AC09E012F5F3F4F8A
:102750004FEF6FEF0E94E50E8A8180934802F801E7
:102760006481613049F06230D1F08091480240E0EC
:10277000662331F040E015C06091480240E080E0FF
:102780000E948913F801848190E0019663E070E073
:102790000E94DE3584832396E4E00C94C535409195
:1027A000480280E060E0ECCFA3E0B0E0EAEDF3E1C6
:1027B0000C94AB359091E30490FF0AC09E012F5F0B
:1027C0003F4F0E94E50E4B8169818A810E948913E7
:1027D0002396E2E00C94C735CF93DF93EC01EC81B4
:1027E000F0E0E95EFE4E4491E3EEF4E06281818127
:1027F0000E94D4138C818F5F8C83DF91CF910895D9
:10280000CF93DF93EC01E3EEF4E0438162818C81AE
:102810000E94D4138C818F5F8C83DF91CF910895B8
:102820000F931F93CF93DF93EB018A019091A30441
:10283000943079F58093E9008FEF9091E80095FD51
:1028400007C095ED9A95F1F7000081508111F5CF01
:102850008091E80085FF1DC00E943C11811114C0C9
:102860008091E80085FD06C08091E8008E77809316
:10287000E800F2CF88818093F10001501109011521
:10288000110511F02196ECCF8091E8008E778093AE
:10289000E800DF91CF911F910F910895CF93DF93BF
:1028A000D82FC92F80911E01811113C048E050E03C
:1028B0006D2F792F81E00E94101480E2ED2FFC2F04
:1028C000A7EFB1E001900D928A95E1F7DF91CF91EA
:1028D00008958091ED0487FD06C048E081E050E056
:1028E0006D2F7C2FE8CF40E284E0F9CFBC0146E0B9
:1028F00050E084E00E9410140895BC0143E050E0D1
:1029000084E00E94101408959091EE0492FB222717
:1029100020F9281779F080FB92F99093EE046091EA
:10292000ED047091EE0484E090E00E94763682E03F
:102930000E94510C0895882381F063E282E290E0C6
:102940000E94583662E083E290E00E94583667E2C7
:1029500084E290E00E94583608956FEF82E290E0A2
:102960000E9458366FEF83E290E00E9458366FEF76
:10297000EFCF1F93CF93DF93962F122F632F282F24
:10298000292B2430C8F44330B8F4C42FD0E0CC0F46
:10299000DD1F26E0929FC00DD11D112498E1899F73
:1029A000C00DD11D1124CE0186960E945836612F8C
:1029B000CE0187960E945836DF91CF911F910895DE
:1029C0001F93CF93DF93962F122F632F8430A0F4A1
:1029D000911112C094E0899FE0011124CA57DF4F82
:1029E000CE01442369F00E94583681E090E0612FC7
:1029F0008C0F9D1F0E945836DF91CF911F91089533
:102A000002960E94583683E090E0F1CFA0E0B0E05B
:102A1000ECE0F5E10C94A13539ECE32E3BE0F32E2C
:102A2000C12CD12CC0E0D0E0460110E017C0C3306B
:102A3000D105E9F0F50125913491402F612F8C2FBC
:102A40000E94B91422E0A20EB11C0F5F033079F787
:102A500033E0830E911C1F5F143041F1C401880FD5
:102A6000991F9C012F57344F590100E0E0CF21E01E
:102A700030E0402F612F83E0E3CFF70125913491BF
:102A800041E060E08C2F0E94E014F701329625911E
:102A9000349140E060E08C2F0E94E014219634E0F5
:102AA000E30EF11C8CE0C80ED11CBECFC330D105A3
:102AB00021F721E030E041E060E083E00E94E01493
:102AC00021E030E040E060E083E00E94E014CDB718
:102AD000DEB7ECE00C94BD35CF93DF93C6E9D0E0D0
:102AE00060E0CE010E9458362196C11584E0D807D7
:102AF000B9F7DF91CF91089580E00E949B1460E0C8
:102B000085E290E00E9458360E9406150E946C15DE
:102B100081E00E949B14089582E290E00E94443676
:102B2000833289F483E290E00E944436823059F483
:102B300084E290E00E94443691E0873209F090E010
:102B4000892F8170089580E0FCCF0F931F93CF935E
:102B5000DF93982F962B943020F5433010F5C42F37
:102B6000D0E0CC0FDD1F26E0629FC00DD11D1124E7
:102B700038E1839FC00DD11D1124CE0186960E949D
:102B80004436082F10E0102F0027CE0187960E94B0
:102B900044369801282BC901DF91CF911F910F91E5
:102BA000089580E090E0F8CF0F931F93CF93DF93C9
:102BB000843048F5611127C024E0829F80011124F0
:102BC0000A571F4FC8014423A1F00E944436C82F62
:102BD000D0E0DC2FCC2781E090E0800F911F0E9495
:102BE00044369E01282BC901DF91CF911F910F918F
:102BF000089502960E944436C82FD0E0DC2FCC27DF
:102C000083E090E0EACF80E090E0EECF462F672FA0
:102C1000743038F4433060F4843050F40E94A515C9
:102C200008957D3F41F4411103C041E0843048F0F4
:102C300080E090E008957C3FD9F74111F9CF8430CE
:102C4000B8F760E00E94D4150895A0E0B0E0EBE290
:102C5000F6E10C94A6357C010091EB048091EA0426
:102C6000082BC3E0D0E010E0C8010C2E02C09595FF
:102C700087950A94E2F780FD09C02197A8F7D12C27
:102C80008D2DCDB7DEB7E7E00C94C235DC2EB70151
:102C90008C2F0E9406160E946B0D019771F3F0CFE6
:102CA0000F931F93CF93FC018281008111818823B0
:102CB00091F0662381F0C8010E942516C82F682F65
:102CC000C8010E94C10BB8018C2F0E940616CF913B
:102CD0001F910F910895C8010E94DD0BC82FF3CFFB
:102CE000CF93DF93D82FC92F0E9425166D2F7C2FED
:102CF0000E9406160E946B0DDF91CF910895FC0192
:102D000083819481892BC9F08181908189238F3FB0
:102D1000A1F0808191810E947016282F92959F705A
:102D2000963091F060F4925F9F70923030F481E0C1
:102D3000203F79F030F4283E30F080E004C09A5F04
:102D4000F3CF243FD1F7089581E0283E18F0213FCA
:102D5000F9CF08950895EEE7F2E080E092E0DF0118
:102D60009C011D9221503040E1F7F0937F04E093E5
:102D70007E048FEF9FEF90937D0280937C020895F5
:102D80008091E8049091EF04892B8093C601909183
:102D9000E9049923D9F0892B8093C60180911E0103
:102DA000882309F442C08091ED0487FF3EC08DE185
:102DB00090E028EC31E0F90140812F5F3F4F411155
:102DC0009F5F8150C0F791110E94770C40E250E064
:102DD0006CEA74E086EC91E00E943736892B21F191
:102DE00080E2E6ECF1E0ACEAB4E001900D928A9565
:102DF000E1F7E091AA04F091AB043097A9F080913B
:102E00001E01882359F08091ED0487FF07C080914F
:102E1000C6018093C70186E08093C6010280F381DA
:102E2000E02D86EC91E00995089585E0C1CF8823D7
:102E300039F09091E804892B8093E8040E94C01631
:102E40000895882321F00E946F0C0E94C0160895F7
:102E500067EE7EEF80E090E00E94763660E082E0F0
:102E600090E00E94583660E083E090E00E9458367F
:102E70001092EA0460E074E184E090E00E9476360B
:102E800060E086E090E00E9458366FEF87E090E0C7
:102E90000E94583640E050E0BA0188E090E00E947D
:102EA0006A3660E08DE090E00E94583640E050E0E5
:102EB000BA0188E190E00E946A3660E087E190E024
:102EC0000E94583640E050E0BA018CE190E00E9448
:102ED0006A3660E070E080E290E00E94763640E082
:102EE00050E0BA0188E190E00E946A3680E00E94DA
:102EF0009B140E947C1540E050E0BA018FE090E006
:102F00000E946A361092A6041092A7041092A80498
:102F10001092A90481E08093A60441E050E060E0B3
:102F200070E083E190E00E946A3608950F931F934A
:102F3000CF93DF938B01D82FC92F0E94710FA80167
:102F40006D2F7C2F88E090E00E946A36DF91CF9150
:102F50001F910F910895E3EEF4E083E0808384E60F
:102F600081838FEF82838383148263E074E68FEF23
:102F70009FEF0E9496170895A4E0B0E0E2ECF7E11D
:102F80000C94AB358091E704833018F48F5F809305
:102F9000E7048091E3049091E404A091E504B091EA
:102FA000E604BC01CD010E9496172496E2E00C9441
:102FB000C735A4E0B0E0EFEDF7E10C94AB358091BC
:102FC000E704882319F081508093E7048091E3049B
:102FD0009091E404A091E504B091E604BC01CD0118
:102FE0000E9496172496E2E00C94C735A7E0B0E063
:102FF000ECEFF7E10C94A035F82ED62EE42E722ECD
:103000009091E30490FF2BC0292F2695E22FF0E04A
:10301000E95CFE4F80818093E1049E7F923019F538
:103020009E012F5F3F4F8F2D0E94E50E4B816981DE
:103030008A810E948913F092E404D092E504E09220
:10304000E604772061F08091E3049091E404A0917C
:10305000E504B091E604BC01CD010E9496172796C5
:10306000EDE00C94BC35823019F4E090E604E3CF37
:10307000863019F4F090E404DECF8930D9F388313A
:10308000D1F6E8EEE20F2170C22EE695F0E0E95E9F
:10309000FD4EE4910E2F10E03BE4A32E32E0B32E60
:1030A000812C912CC4019695879596958795C11092
:1030B00013C08F0D95014E2D6D2D0E94E50E800ED3
:1030C000911E83E0A80EB11C97E5A91692E0B906FF
:1030D00049F70E943D12AFCF2F2D281B822FEACF38
:1030E000E3EEF4E0818121E043816281885F0E9408
:1030F000F6170895E3EEF4E0818121E043816281D7
:1031000088500E94F6170895E3EEF4E0628120E112
:10311000620F08F46FEF21E0438181810E94F6176E
:103120000895E3EEF4E0628120E1621B08F460E0C0
:1031300021E0438181810E94F6170895E3EEF4E0D7
:10314000438120E1420F08F44FEF21E06281818149
:103150000E94F6170895E3EEF4E0438120E1421B5C
:1031600008F440E021E0628181810E94F617089511
:103170001F93CF93DF93982F162F81E09A3019F089
:103180009D3039F480E00E944919DF91CF911F9161
:103190000895C0917E04D0917F0486E0FE01A0E2F4
:1031A000B2E001900D928A95E1F7903E90F186E0B1
:1031B000FE0111928A95E9F7C0917E04D0917F04B7
:1031C000111133C046E050E0BE0180E292E00E945F
:1031D00037369E012E573240892B91F52A5F3F4F9B
:1031E00040916F02642F70E0C9010E948735481B2F
:1031F000463010F4240F311D211572E0370710F00E
:1032000020E030E022583D4F30937F0420937E042D
:10321000BCCFF6E09F9FB00111246952744F46E085
:1032200050E0CE010E942136C7CF9E012A5F3F4F5A
:10323000FE012E173F0731F2808180958193F9CFEF
:10324000C90145E0969587954A95E1F741E050E040
:10325000BA0102C0660F771F8A95E2F7CB01609131
:103260007C0270917D02862B972BB9016B5F7F4F9B
:10327000E5E076956795EA95E1F702C0440F551FA2
:103280006A95E2F7842B952B90937D0280937C02C4
:10329000A5CFCF93382FE0917E04F0917F04EE57B5
:1032A000F24020916F02622F70E0CF010E948735BB
:1032B000281B822F332369F066E00E94D235C82F85
:1032C000C15010F4CF91089560E080E20E94B818D8
:1032D000F7CF9F01280F311D2115324018F080E0F3
:1032E000E0E0F0E08E0F9F2F911D82589D4F90934C
:1032F0007F0480937E04E6CF1F93CF93DF93EC018E
:10330000162FFE018491811104C0DF91CF911F918E
:103310000895612F0E94B8182196F3CFA0E0B0E085
:10332000E4E9F9E10C94A5356C017B0164E670E0F9
:1033300088E70E949234EC0197FD11C08601EC0CE5
:10334000FD1CF801849164E670E00E940135EC01F7
:10335000892B29F40F5F1F4F0E151F0591F70E944F
:103360008335CE01CDB7DEB7E8E00C94C135A5E0DA
:10337000B0E0EDEBF9E10C94AB35809196048D83D0
:10338000809199048823F1F00E947310DC01CB0135
:10339000805D9A48AF4FBF4F8093920490939304FF
:1033A000A0939404B09395048D81811108C062E0CC
:1033B00070E085ED9BE00E948E19892B41F0809191
:1033C00096048D838D812596E2E00C94C73581E0CB
:1033D00080939604F4CF2F923F925F926F927F92E8
:1033E0008F929F92AF92BF92CF92DF92EF92FF9215
:1033F0000F931F93CF93DF9380917C0290917D0276
:10340000892BA1F080919904882381F08091470253
:1034100081110CC00E94B71920917C0230917D026D
:1034200080E061E070E02115310599F4DF91CF91E2
:103430001F910F91FF90EF90DF90CF90BF90AF90D2
:103440009F908F907F906F905F903F902F90089506
:103450008F5F082F10E01B01082E02C0220C331CC6
:103460000A94E2F7A10142235323452B89F390915B
:1034700046029170911143C0980136952795369573
:1034800027958295880F80763FE1380F809302015F
:1034900020930501309303019093060124E630E068
:1034A00047E050E060E071E088E70E943135892B09
:1034B00009F0BCCFA80125E0440F551F2A95E1F77C
:1034C0008091460280FD23C042585D4F04E610E023
:1034D00020E230E060E488E70E945835892B09F04B
:1034E000A5CFE101C095D09580917C0290917D029D
:1034F000C823D923D0937D02C0937C0297CF880F35
:10350000880F880F37E0380F20E093E0BFCFE6E266
:10351000F2E080E2DF011D928A95E9F7A3E3B1E0D2
:103520000FE211E087E3C82E81E0D82E97E0592EF4
:10353000772473948D91E80129918E01240F352F02
:10354000311D22583D4FE82FF0E0EA5DFD4F80E04D
:1035500090E0652C681A872C082E01C0880C0A940C
:10356000EAF77901A12CE701B9907E01B820662D18
:103570006A19677070E0DB2D062E01C0DD0F0A941A
:10358000EAF79D2E7195619571096770772701C0E3
:10359000B6946A95EAF79B286081962A9082A39454
:1035A00068E0A612E0CF019631968830910589F641
:1035B000CA16DB0609F0BECF04E610E020E230E0D8
:1035C00046E252E087CF80919904882371F0809180
:1035D0009604882351F062E070E084ED9AE00E9446
:1035E0008E19892B11F4109296040895A4E0B0E08E
:1035F000ECEFFAE10C94AB3590E280FF90E8809319
:10360000460290936F020E948C346DE070E087EC6C
:103610009AE00E948E19892B69F58091460263E039
:1036200070E081FD2BC084EC9AE00E948E19892BFA
:1036300009F56DE070E084EB9AE00E948E19892B09
:10364000C9F40E947310DC01CB01805D9A48AF4F32
:10365000BF4F8093920490939304A0939404B093EB
:1036600095040E94AB1681E08093990480939604A0
:10367000109247022496E2E00C94C73581EC9AE060
:10368000D4CF1F921FB61F9211248F939F93AF9395
:10369000BF9380915C02811113C0809118029091B8
:1036A0001902A0911A02B0911B024196A11DB11DF1
:1036B0008093180290931902A0931A02B0931B02F0
:1036C000BF91AF919F918F911F901FBE1F90189532
:1036D0002FB7F8948091180290911902A0911A02C4
:1036E000B0911B022FBF08950E94681B2091DA043D
:1036F0003091DB04232B222321F080939C049093B0
:103700009D042091DC043091DD04232B222321F041
:1037100080939A0490939B04E091AA04F091AB04E7
:10372000309749F082E08093D8040480F581E02D41
:1037300088ED94E009950895662309F44BC0E3E30E
:10374000E80FE33150F4F0E0E257F94C0C941436F2
:103750000E94A00E81958093DB040E94741B089543
:103760000E94A00EF8CF0E94A00E81958093DA04EB
:10377000F4CF0E94A00EFACF0E94C00E8093DC040A
:10378000ECCF0E94C00E8195F9CF0E94C00E8195AA
:103790008093DD04E2CF0E94C00EFACF815D990BC9
:1037A00021E030E001C0220F8A95EAF78091D90428
:1037B000822B8093D904D1CF8091D70481608093EC
:1037C000D704CBCF8091D7048260F9CF8091D70402
:1037D0008460F5CF4091DA048D3C59F48091DB048C
:1037E00087FF0DC01092DB04442359F41092D604D5
:1037F00008C08E3C81F48091DB0418169CF34423AE
:1038000081F08091DC049091DD04892B8111A5CF9A
:103810001092D504A2CF8F3C41F447FFF0CF109215
:10382000DA048091DB048823E0CF803D19F414167C
:10383000B4F3E5CF9091DC04893D29F41916FCF628
:103840001092DC04DCCF8A3D19F497FFD8CFF8CF73
:103850009091DD048B3D29F497FFD1CF1092DD04C8
:10386000CECF8C3D19F41916CCF3C9CF9FE2980F37
:10387000983090F4815D990B21E030E0B90102C0ED
:10388000660F771F8A95E2F7CB0180959091D90456
:1038900089238093D904B3CF8D3D31F48091D7042F
:1038A0008E7F8093D704ABCF8E3D21F48091D704D7
:1038B0008D7FF7CF8F3D09F0A2CF8091D7048B7F0A
:1038C000F0CFCF93C82F8823C1F18CEF8C0F813AB2
:1038D000B0F580911E01882301F18091ED0487FFEE
:1038E0001CC0EC2FE695E695E695F0E0EA53FE4F16
:1038F000828190E04C2F477021E030E002C0220F1F
:10390000331F4A95E2F782239323892B79F08C2F7A
:103910000E94240C0E94C01609C0E8ECF1E08191DD
:10392000C817A9F321E0EE3CF207C9F76C2F86EC2B
:1039300091E00E943D100E94C016CF91089580E250
:103940008C0F883068F4C77081E090E001C0880F68
:10395000CA95EAF7C091E804C82BC093E804EBCFFE
:103960008BE58C0F833038F42C2F2452330BC90194
:103970000E94F10FE2CFE8E5EC0FEB3150F4F0E0FC
:10398000EE0FFF1FE257FE4F808191810E941710BA
:10399000D4CF83E38C0F833180F661E08C2F0E94BB
:1039A0009C1BCBCF882381F19CEF980F913A28F490
:1039B0000E94240C0E94C016089590E2980F98303F
:1039C00050F4877091E001C0990F8A95EAF7892F2A
:1039D0000E946F0CEFCF9BE5980F933028F480E0A6
:1039E00090E00E94F10F089598E5980F9B3128F41C
:1039F00080E090E00E941710089593E3980F9331B0
:103A000018F460E00E949C1B0895CF93C82F89335F
:103A100099F489E30E94611C80E590E0EFE9FFE002
:103A20003197F1F700C0000001970097B9F78C2F8C
:103A30000E94D21CCF9108950E94611C8AE090E000
:103A4000EDCF1092E80480911E01E8ECF1E08823AC
:103A500029F18091ED0487FF21C08EE1DF011D92E5
:103A60008A95E9F780E090E00E94F10F80E090E015
:103A70000E9417101092EF040E94C01686E0E8ED35
:103A8000F4E0DF011D928A95E9F71092D6041092B6
:103A9000D5041092D7040E94741B089586E0DECFEF
:103AA0000E94211D2FEF84E39CE021508040904034
:103AB000E1F700C0000088E19AE00FB6F894A895FD
:103AC000809360000FBE90936000FFCFAAE2B0E049
:103AD000ECE6FDE10C94A9358FEE91E0FC01019636
:103AE0002091F100208321E0873F9207B9F7809170
:103AF000F001893009F456C0C8F4823009F4B3C02B
:103B0000833009F482C0813071F18091E80083FF35
:103B1000E7C08091EF019091F0019A3008F0E0C089
:103B2000E92FF0E0EF55F94C0C9414368A3009F483
:103B300089C08B3051F78091EF01813231F780914C
:103B4000F3019091F401892B01F78091E800877FC0
:103B50008093E8000E941D118091F10180931E0165
:103B60000E94211DD2CF8091EF01813A71F68091A0
:103B7000E800877F8093E8008091F3019091F40141
:103B8000892B61F060E080E090E070E00E94C4105A
:103B90008091E8008B778093E800B7CF60E287EFF1
:103BA00091E0F3CF8091EF01813209F0AECF8091A7
:103BB000F3019091F4018D7F892B09F0A6CF8091BC
:103BC000E800877F8093E8008091E80082FF18C0BA
:103BD0009091F3008091F200029731F48091F1000E
:103BE000813011F0863021F48091F100809317022A
:103BF0008091E8008B778093E8000E941D1185CFAB
:103C00008091A3048111E0CF80CF8091EF01813AB0
:103C100009F07BCF8091F3019091F401892B09F099
:103C200074CF8091E800877F8093E8008091E8005E
:103C300080FFFCCF80911E018093F1008091E8000D
:103C40008E77D9CF8091EF01813209F05ECF8091DC
:103C5000E800877F8093E8000E941D118091F201A7
:103C60008093EB0152CF8091EF01813A09F04DCF63
:103C70008091E800877F8093E8008091E80080FFD2
:103C8000FCCF8091EB01D8CF803889F0823841F5A4
:103C90008091F3018F70873018F58093E90080914F
:103CA000EB0085FB882780F91092E90006C080911F
:103CB000EC0190915F02911182609091E800977FF2
:103CC0009093E8008093F1001092F1008091E80059
:103CD0008E7723C0811116C08091F101813011F1DE
:103CE0008091E80083FF0AC08091E800877F80937D
:103CF000E8008091EB0080628093EB00AA96E4E0FC
:103D00000C94C535823061F78091F101882389F0E8
:103D10001092E9008091E800877F8093E8000E947C
:103D20001D11DECF81E0933009F080E080935F02C7
:103D3000EFCF8091F3018F702FEF280F263080F6A0
:103D40008093E9002091EB0020FFE2CF933031F423
:103D50008091EB0080628093EB00DACF9091EB00D2
:103D600090619093EB0021E030E0A90102C0440F84
:103D7000551F8A95E2F74093EA001092EA0080917D
:103D8000EB008860E8CF8111ABCF1091F1011F7774
:103D90008091E3008078812B8093E3008091E8009C
:103DA000877F8093E8000E941D118091E80080FFCA
:103DB000FCCF8091E30080688093E30083E01111E1
:103DC00001C082E08093A3048BCF8058823008F03A
:103DD00087CF6091F1017091F2016C3D53E075075E
:103DE00099F583E08A838AE289834FB7F894DE01EC
:103DF000139620E03EE051E2E32FF0E050935700AD
:103E0000849120FF03C082958F703F5F8F708A304E
:103E1000C8F0895C90E08D939D932F5F243161F70A
:103E20004FBF8091E800877F8093E8006AE270E0EE
:103E3000CE0101960E94C4108091E8008B77809398
:103E4000E8004ECF805DE6CF8091F3019091F401C0
:103E50004091F5015091F601272F3327142F052F9C
:103E60002330310509F44AC078F52130310509F4D1
:103E7000D5C08BE590E0E6EDFAE02230310509F09F
:103E80002FCF2091E800277F2093E800212F302FAB
:103E90008217930708F49C0140E02115310509F0D1
:103EA000C2C04111C0C08091E80082FDC5CF8091A1
:103EB000A304882309F4C0CF853009F4BDCF8091D5
:103EC000E80083FFF0CFB8CF2132310509F497C065
:103ED0002232310509F004CF8330910508F000CF7C
:103EE000FC01EE0FFF1FED5DFE4F0190F081E02D14
:103EF000805E9E4FDC018C9190E069C0CB019927D8
:103F0000613061F08230910569F1EDE7FBE0892BCA
:103F100039F080E090E0E0E0F0E004C0EFE5FBE0A5
:103F2000849190E0209170022F5F20937002509353
:103F300075024093740242305105B9F43091710218
:103F40003F5F30937102233008F441C03091730217
:103F5000323060F140917202442321F122E020933B
:103F6000760235C0E3E4FBE0DBCF4430510531F4A9
:103F7000309172023F5F30937202E5CF4F3F51059F
:103F800059F0233020F130917302323018F7253088
:103F900069F53323A1F022C0309173023F5F309363
:103FA0007302D1CF23131AC021E0D9CF60917102DF
:103FB0002530E1F44F3F510561F7313061F0209138
:103FC0007102233021F420917202213041F20097D6
:103FD00009F486CE56CF23E0623009F220917102B7
:103FE00030917202232B2111F2CFDECF409171026A
:103FF000243079F63111F2CF423009F7B0CF833057
:10400000910508F06DCEFC01EE0FFF1FE75DFE4F3E
:104010000190F081E02D89E090E033CF82E190E0E3
:10402000E1E3FBE02ECF8091A304882309F404CFC1
:10403000853009F401CF8091E80083FDFDCE8091A9
:10404000E80082FD30CF8091E80080FF26CF90917C
:10405000F3008091F2002115310519F088309105A7
:1040600050F041E0089709F040E08091E8008E7739
:104070008093E80012CF44914093F1003196215093
:1040800031090196E8CF803809F02ACE8091E80006
:10409000877F8093E8008091ED018093F10016CE38
:1040A00081111ECE1091F101123008F019CE8091CD
:1040B000E800877F8093E8001093ED010E941D11B6
:1040C0001123D1F084E08093A30442E061EC81E00D
:1040D0000E948C1142E261EC84E00E948C1142E269
:1040E00061EC82E00E948C1142E260EC83E00E946D
:1040F0008C118091A304F4CD8091E30087FDE2CF81
:1041000081E0E1CF6091E304669570E04BE050E020
:1041100089E091E00E942A36892B19F481E080938E
:10412000E2040E94681B90936602809365020895E2
:10413000A4E0B0E0EEE9F0E20C94AB359091E3043A
:1041400090FF34C08823B1F18432B0F58F77880FA7
:104150009091E3049170892B8093E304662361F0CE
:104160008091E3049091E404A091E504B091E60409
:10417000BC01CD010E9496176091E304669570E042
:104180004BE050E089E091E00E942A36892BB1F0A3
:104190001092E20481E08093680220E04091E604FE
:1041A0006091E5048091E4040E94F6172496E2E011
:1041B0000C94C73581E0CBCF83E2C9CF0E94822027
:1041C000E9CF8091E30486958F5F843208F081E027
:1041D00061E00E94982008959091E30496958FEFF6
:1041E000890F913009F483E261E00E9498200895DC
:1041F000E3EEF4E080818160808360E086950E9438
:10420000982008959091E30490FF08C09695981720
:1042100028F0961718F40E94E120089561E00E94AA
:10422000982008959C014FB7F894809118029091BE
:104230001902A0911A02B0911B024FBF821B930B6F
:1042400008950F931F93CF93DF93C62FD42F122F70
:104250008823A9F06093DF040E94681B9093EA0111
:104260008093E901C77081E001C0880FCA95EAF721
:104270000E941717DF91CF911F910F9108958091A0
:10428000DF04681332C08091E9019091EA010E9435
:104290001221883C910548F5CD130CC0812F0E9456
:1042A000051DD77081E001C0880FDA95EAF70E94FA
:1042B0002117E0CFC77001E0802F01C0880FCA9599
:1042C000EAF70E94211780E28D0F883050F48D2F7D
:1042D000877001C0000F8A95EAF7802F0E94171798
:1042E000DDCF812F0E94051DC5CFC77081E001C0C1
:1042F000880FCA95EAF7DBCFACE0B0E0E2E8F1E284
:104300000C949F357C01DC019C9111968C91119746
:1043100013962D913C91232B09F4F1C089238F3FF3
:1043200009F4EDC061E0C7010E9450168C01F7014D
:104330008281882309F488C19801375720383105D4
:10434000A8F10115FCE71F0709F098C160E081E0C2
:104350000E94982020E04FEF6FEF80E00E94F61758
:104360000E94AB1660E087E296E10E947C190E94F1
:10437000EB19F7018281882339F080911F01833086
:1043800019F481E08093DE04D70112968C9181119B
:10439000B3C10631BCE71B0709F09DC28091E00460
:1043A000811197C289E20E94240CC1C1003108F03A
:1043B00095C08FEF93E00E94443681118FC056E97B
:1043C000C52ED12C01115AC01A821982FE013396D2
:1043D00086E0DF011D928A95E9F74AE0642E5601D6
:1043E000BFEFAB1ABB0AC6010E94443689831A820A
:1043F000882309F473C0813009F085C086010E5FFF
:104400001F4FC5010E9444368A83882309F466C081
:104410009FEF980F933008F03FC0E3E0CE0ED11C21
:10442000C8010E9444368B83882309F457C01C823C
:104430008E010F5F1F4FD8018C91882381F281304C
:1044400009F0A3C011968C911197813009F05DC0DD
:104450005801B2E0AB0EB11CF80182810E94051D2B
:1044600085010F5F1F4F8AE0AFE9BFE01197F1F7B9
:1044700000C0000081508111F7CFDDCFC11424E0CE
:10448000D20661F1C6010E944436D60111966D0133
:104490008111F4CF015096CF8430B9F432E0C32EAD
:1044A000D12CC8010F5F1F4F0E944436E1E0F0E0BD
:1044B000EC0FFD1FEC0DFD1D8083882379F08C37F8
:1044C00031F4FE01EC0DFD1D12826801B1CFFFEF4A
:1044D000CF1ADF0A27E0C216D10419F78091EC0445
:1044E0008770882361F0D70112968C91882339F068
:1044F0008091EE0482FF03C082E00E94510C2C9652
:10450000EEE00C94BB35650193CF823049F458013D
:10451000F2E0AF0EB11C12968C910E94611CA0CFEC
:10452000833049F45801B2E0AB0EB11CF80182812E
:104530000E94D21C95CF843019F00F5F1F4F91CF8E
:1045400012962C910E5F1F4F80E090E0A8014F5F04
:104550005F4F2053330B2A30310558F0009709F490
:1045600080CFAFE9BFE01197F1F700C000000197DD
:10457000F5CF689EB001699E700D1124C901860FA8
:10458000971FF80121818A01E1CFE82FF0E0E9557A
:10459000FA4E7490282F26952695269530E0F9013D
:1045A000E956FA4E94918770F901E957FA4EA490B2
:1045B000B12C082E02C0B594A7940A94E2F7B1E09A
:1045C000AB22BB24F901E958FA4E8490912C082EB5
:1045D00002C0959487940A94E2F7E1E08E22992430
:1045E000292F30E002C0359527958A95E2F720FD06
:1045F0000DC0AB28F9F4872D0E94051D811491048C
:1046000009F42FCF8CE20E94051D2BCF81EE0E9472
:10461000611CAB2829F4872D0E94051D81EE11C075
:1046200086EE0E94611C872D0E94051D86EE0E9469
:10463000D21CF4CF86EE0E94611C872D0E94051DBE
:1046400086EE0E94D21CDACF0115BCE71B0709F4E5
:104650007DCE0832F0E41F0709F4F4C1003520E4F0
:10466000120709F4EFC1F801E851FC47E730F10502
:1046700008F08ACEE555F94C0C94143690911F0140
:10468000933019F491E09093DE04083230E413077C
:1046900059F0003540E4140731F7F7018581803186
:1046A00008F04BC481E008C0D70115968C9115978E
:1046B000803108F049C482E00E944B0B0FCF26E204
:1046C00041EE61EE0E94212109CF27E245EE65EE21
:1046D000F9CF26E241EE60EEF5CF27E245EE64EE3B
:1046E000F1CF26E241EE62EEEDCF27E245EE66EE37
:1046F000E9CF28E241E0EBCF1092DF04C8019057E8
:104700008397C0F00631ECE71E0709F064C1809181
:10471000E8048A7A91E0811101C090E09093E0046E
:1047200069E2811165E386EC91E00E943D100E94F0
:10473000C016D4CE84E090E00E9452369093EE04EE
:104740008093ED04F801E150F047E232F10520F4E6
:10475000EE54F94C0C9414368091ED0481608093F2
:10476000ED046091ED047091EE0484E090E00E940D
:1047700076360E94211DB2CE8091EE04886080932F
:10478000EE04EFCF8091ED048260E9CF8091ED04DB
:104790008460E5CF8091ED048860E1CF8091EE04E4
:1047A0008160EDCF8091EE048260E9CF8091ED04CD
:1047B0008061D5CF8091ED048062D1CF8091ED04EE
:1047C0008064CDCF0E94211D8091ED048068C7CF09
:1047D0008091ED048C60C3CF8091EE048360CFCFD5
:1047E0008091ED048E7FBBCF8091EE04877FC7CF91
:1047F0008091ED048D7FB3CF8091ED048B7FAFCF9F
:104800008091ED04877FABCF8091EE048E7FB7CF90
:104810008091EE048D7FB3CF8091ED048F7E9FCF8A
:104820008091ED048F7D9BCF8091ED048F7B97CF9E
:104830000E94211D8091ED048F7791CF8091ED042E
:10484000837F8DCF8091EE048C7F99CF8091ED0492
:1048500082FB992790F921E0922790FB82F990FB47
:1048600083F97DCF8091EE04982F909591708E7F83
:10487000892B90FB81F983CF9091ED04892F8F7B59
:1048800096FF80646CCF0E94211D9091ED04892FCA
:1048900097FB87F9805863CF61E08EE090E00E943B
:1048A00058365FCF60E0F9CF9091ED04892F8F7E6D
:1048B00094FF806154CF9091ED04892F8E7F90FFFB
:1048C00081604DCF9091EE04892F877F93FF8860A0
:1048D00056CF85E368CD8091E8048272F801E052FA
:1048E000F847E531F10508F0A2C0EC52F94C0C9400
:1048F00014368091E30480FF18C08E7F8093E30418
:104900008091E3049091E404A091E504B091E60461
:1049100089879A87AB87BC87BC01CD010E94961717
:104920001092E2040E943D12D9CD81608093E3048D
:1049300061E086950E949820D1CD4CEE50E261EE68
:1049400070E20E947F0FCACD41EE50E26CEE70E241
:10495000F8CF4AE758E160E778E1F3CF40E758E164
:104960006AE778E1EECF41E958E164E878E1E9CF20
:1049700044E858E161E978E1E4CF4BEA58E16EE9B7
:1049800078E1DFCF4EE958E16BEA78E1DACF49ED23
:1049900057E16CEB77E1D5CF4CEB57E169ED77E16F
:1049A000D0CF61E081E0C6CF65E082E00E940221C5
:1049B00095CD68E086E0FACF6EE089E0F7CF64E15C
:1049C0008FE0F4CF67E185E1F1CF61E288E1EECFDE
:1049D00061E082E2AFCF07379CE7190709F480C096
:1049E00082E00837ACE71A0709F47BC00A35FCE718
:1049F0001F0709F49CC008F080C001303CE7130792
:104A000009F493C003304CE7140709F488C001157A
:104A10001C47C1F40E94211DBFEFE4E3FCE0B1504C
:104A2000E040F040E1F700C000000E94B0100737FE
:104A3000BCE71B0709F45DC082E00837ECE71E07FE
:104A400009F458C0F7018281C080D180882309F41D
:104A500072C0C6010E942516182F682FC6010E9439
:104A6000C10BB601812F0E9406160E946B0D8C01AE
:104A7000D7011296DC9012971596CC90C2942FE035
:104A8000C2228091EC0487708823F1F0AD2CDD20E8
:104A9000E1F0812F807F803451F080E2800F8830F8
:104AA00098F0C11004C0812F807E803269F080911F
:104AB000EE0482FF09C082E00E94510C8091EC0458
:104AC0008770AA24A3948111A12CE12FE295EF70A5
:104AD000103C08F06DC0F0E0E751F94C0C9414362E
:104AE00081E00E944E0B43E062E081E00E94F90BFE
:104AF000F5CC81E00E945A0BF6CF0B359CE71907E5
:104B0000C1F00C351C4709F09DCF8091EE0482FB6B
:104B1000882780F991E089270E94841493CF6FEF52
:104B20007FEF80E090E00E9476360E94501D81E089
:104B3000F3CF80E0F1CFC6010E94DD0B182F91CF9B
:104B4000B12FBF70CB2E103118F0C29490EFC92254
:104B5000DD20B9F0CC2069F080E2800F883010F0C1
:104B6000011109C08091E8048C298093E8040E9417
:104B7000C016802F68C08091EF048C298093EF04C9
:104B8000F6CF802F0E94D21CCC2091F080E2800FC3
:104B9000883010F0011104C08C2D0E946F0C06C0EB
:104BA000C0948091EF048C218093EF040E94C01682
:104BB000AA20B1F08091EC0480FD12C0D7011296BA
:104BC0001C928595859585950E944E0BC7010E9484
:104BD0007C218091EC048595859585950E945A0BE2
:104BE00060E0C7010E9450168ACCE12FEF70BE2E04
:104BF000107F103219F0B29480EFB822002399F0A0
:104C0000013009F453C0DD2009F45DC0CC2009F463
:104C100053C0D70115968C91159780FFAACF8F703E
:104C200015968C9349C02091EE0422FD17C0DD201B
:104C300069F0BB2039F08091E8048B298093E80467
:104C40000E94C01680E00E94611CB2CF80E00E94EA
:104C5000D21CBB2009F4ACCF8B2D9FCFDD20A1F05F
:104C60009091E904892F8B29C11003C00E94171766
:104C70009FCFF1E0CF12FACF22FF9ACF981709F415
:104C800097CF8093E90494CFC11006C00E94770C9F
:104C90008B2D0E9421178CCF21E0C21609F488CFFA
:104CA0008B2D0E9421170E94770C82CFDD2031F0DE
:104CB00035E03C1508F47CCF8B2DD8CF44E04C1563
:104CC00008F476CFE5CFCC2019F3093369F4BFEFB0
:104CD000E7EEF3E0B150E040F040E1F700C0000043
:104CE000802F0E94D21C64CF8FE39CE90197F1F7DB
:104CF000F5CF812F869586958370882361F081306A
:104D000009F056CFC8019370D11002C080E090E046
:104D10000E9417104DCFC8019370D11002C080E0DF
:104D200090E00E94F10F44CF6D2D802F0E949C1BBC
:104D30003FCF812F8370811134C0D11027C0402F05
:104D4000429546954770440F440F802F8F70042E74
:104D500001C0880F0A94EAF70071002341F02FE0A8
:104D600030E001C0220F4A95EAF7022F0095169510
:104D700016951370123081F0133061F02091EA041F
:104D8000113039F0802B82230E94480B0E94E40FDF
:104D90000FCF822B802BF8CF802B9091EA048927AC
:104DA000F3CFDD2051F110FFF1CF402F4295469512
:104DB0004770440F440F802F8F70042E01C0880F5E
:104DC0000A94EAF70071002341F02FE030E001C0BF
:104DD000220F4A95EAF7022F009516951695137043
:104DE000123089F0133069F02091EB04113041F05A
:104DF000802B82230E944B0BC9CF823038F2D5CF53
:104E0000822B802BF7CF802B9091EB048927F2CF58
:104E10001F70DD2039F0812F0E944E0B802F0E94E1
:104E20001717B4CF802F0E942117812F0E945A0B91
:104E3000ADCF023F69F178F4003FC1F0013F09F4C2
:104E40003EC0DD2009F462C0CC2009F45CC0802F94
:104E50000E94611C9BCF033F11F1043F61F1D1100F
:104E6000F3CFC11065C0812F8F71E0CFDD2069F0D5
:104E700094E09C1508F48ACF1F7181E090E0012E28
:104E800001C0880F0A94EAF7BFCFA5E0CA16F2CF97
:104E9000812F8F71D110CACF0E944E0B77CF80E047
:104EA000DD2009F4A7CF1F7181E0012E01C0880F1A
:104EB0000A94EAF79FCF8091EE0482FD06C0812F0D
:104EC0008F71DD2009F4B2CFE7CFDD2089F01F71AB
:104ED000812F0E944E0B8091EE0482FF07C0B8E044
:104EE0001B9FC001112483608093EC04812FD4CFD9
:104EF00081E00E94510CE1E0EC1508F047CF82E020
:104F00000E94510C43CF812F8F71C6CFCC2009F462
:104F1000AACF093369F4FFEF27EE33E0F1502040C8
:104F20003040E1F700C00000802F0E94D21C2ECF3D
:104F30008FE39CE90197F1F7F5CF8281882309F48B
:104F400081CD1092DF047ECD12968C91F7CF1F9306
:104F5000CF93DF9380912705803108F04CC080917A
:104F60002405882309F447C08091F1042091F004BE
:104F70003091220560912305C0912505D091260529
:104F8000732F76232817B9F190E0209709F443C0D6
:104F900016E07F3F09F43FC0189FF001199FF00D04
:104FA0001124DF01AE50BB4F11964C91119746135F
:104FB0002CC04C91431329C012964C911297411169
:104FC0001EC013964D915C914C1B5D0B483C5105E6
:104FD000E0F4809127058F70806180932705E95068
:104FE000FB4F80818F708061808382E295E00E9418
:104FF0007C210E941A0CDF91CF911F910895019698
:10500000877099272813C8CFF6CF01968770992704
:105010002813BFCFF0CF01968770B4CFABE0B0E0DC
:10502000E4E1F8E20C94A2358C0185E0F801DE01A0
:10503000179601900D928A95E1F7F8019280C3804E
:10504000D48082E2A82E85E0B82E8091220590912E
:10505000230520912505309126052115310509F4F8
:1050600003C1482F49234F3F09F4FEC0E0902405B7
:10507000A601421B530BEE2009F4C9C0F09027058E
:10508000483C510508F0A3C0B1805FE05F1508F40B
:1050900062C09B1114C09081981311C091103FC041
:1050A0008F2D8F7080618093270582E295E00E94AA
:1050B0007C2180912705F8018583F12C29C0FF8090
:1050C000C114D10451F18F2D8B218F3F31F19110FB
:1050D00026C040E06B2D8F2D0E941E1240E06B2DEC
:1050E0008F2D0E941E12F82E8111E7CF8F81988597
:1050F0000E947016292F22952F709034B0F49F7063
:105100002230E0F09923F1F0F80195819031D0F44C
:105110008F2D2B96EBE00C94BE35992071F2809187
:105120002705816080932705C8CF2A5F2F70223022
:1051300068F0C8010E947C21FE2CEACF992311F06F
:10514000882331F3805E883018F3F3CF803F00F37B
:10515000815F8230F9CF9B1112C0908198130FC0EC
:1051600091100DC0F582C8010E947C2186E0F801F3
:10517000A2E2B5E001900D928A95E1F725C0C80141
:105180000E947F16882309F46BC0992009F468C037
:1051900080912705803270F080912205909123053F
:1051A0009A8389831B82DD82CC82FE82CE010196A6
:1051B0000E947C2186E0F801A2E2B5E001900D9208
:1051C0008A95E1F70E94A727FF24F394A1CFFFE07F
:1051D000FF1550F082E295E00E947C2186E0F50107
:1051E00011928A95E9F769CFF80121812913C7CF78
:1051F00090819813C4CF9110C2CFF582C8010E944C
:105200007C2186E0F50111928A95E9F7DDCF483CD3
:10521000510520F7992021F12181291317C0908190
:10522000981314C08091270580FDA0CF803108F429
:105230009DCF8583807F803F09F495CF8581982F0E
:10524000907F905F8F70892B85838DCFC8010E94DE
:105250007F168111AFCF809127058160809327054C
:10526000C8010E947C21B0CF9920D1F3C8010E94CF
:105270007F168823A9F39ECFA7E1B0E0E2E4F9E22C
:105280000C94AA354B8B5C8B962F6D8B7E8B8F8B02
:1052900061111092EF041A8A85E0FE017396DE0117
:1052A0001D9601900D928A95E1F79F8786E0FE0199
:1052B0003D96DE01179601900D928A95E1F7CE0199
:1052C00007960E940E28811131C086E0FE013796B4
:1052D000DE01119601900D928A95E1F78F819885F4
:1052E0002091F0044091F1046A857B85672BF1F0F1
:1052F00089238F3FD9F030E0C90101968770992743
:1053000050E084179507E9F096E0929FD001939FB3
:10531000B00D1124AE50BB4FFE01319601900D929D
:105320009A95E1F78093F0040E941A0C16E08091A0
:10533000F1049091F004891312C06796E3E00C9495
:10534000C6350E94211D1092F0041092F10486E0EF
:10535000E2E2F5E0DF011D928A95E9F7E7CF189FB9
:10536000C00111248E509B4F0E940E28882329F3E0
:105370008091F10490E00196877099278093F10461
:10538000D6CFA5E0B0E0E7ECF9E20C94A9350E9495
:10539000681B8C018091A4049091A504801791074B
:1053A00091F08FEF89838A831B820E94681B816042
:1053B000782F49815A816B81892F0E943C29109353
:1053C000A5040093A4042596E4E00C94C535A4E05C
:1053D000B0E0EDEEF9E20C94A0351A8219821C823D
:1053E0001B828BE5A82E81E0B82E8E010F5F1F4F28
:1053F0009FE5E92E91E0F92E4801CC24C394D12CED
:10540000F50181915F018F3F09F442C0F894E82FC4
:10541000E295EF70F0E021A18F70A60102C0440F69
:10542000551F8A95E2F7CA01922F982B91A392A15A
:105430008095892382A3789400C0EFE5F1E031E004
:10544000712C21912F3F09F46CC0A22FA295AF704F
:10545000A05EB0E08C9190E02F7002C0959587958A
:105460002A95E2F7817081115CC0832F782A330F6F
:1054700051E0E236F50729F7F501319780818F3F3A
:1054800011F00E94860E80EA8A95F1F7F801708289
:105490000F5F1F4FEA14FB0409F0B2CF44E050E065
:1054A000B40187E592E00E943736892BE1F18981CA
:1054B0009A81AB81BC818093570290935802A0934C
:1054C0005902B0935A0281E08093E8010E94681B60
:1054D0009093E7018093E6018091E6019091E701C6
:1054E0000E941221059718F144E050E067E572E050
:1054F0008FE994E00E943736892B81F08091570222
:1055000090915802A0915902B0915A0280939F0441
:105510009093A004A093A104B093A2041092E80178
:1055200006C080E0A3CF8091E8018111D5CF2496F9
:10553000EDE00C94BC35CDB7DEB7EC970FB6F89420
:10554000DEBF0FBECDBF85B7806885BF85B78068D9
:1055500085BF84B7877F84BF0FB6F894A8958091E4
:105560006000886180936000109260000FBE80E848
:1055700090E00FB6F89480936100909361000FBEA5
:1055800084E89EE09093C5018093C4010E946D1150
:105590000E94C3118091E20084608093E2007894BD
:1055A0008091A304882399F08091E9001091EC0088
:1055B0001795112717958F70182B1092E90080917D
:1055C000E80083FD0E94661D1F701093E90082E0D1
:1055D00084BD93E095BD9AEF97BD80936E000E94C5
:1055E0008C15811102C00E947C1581E080936D02B0
:1055F00022982A9A23982B9A8FE891E00197F1F745
:1056000000C0000020916D024EE652E0FA018E2F9C
:10561000841B821708F457C086E60E94860E84E930
:105620000E94860E82E90E94860E83E90E94860E01
:1056300086EF0E94860E85EF0E94860E84EF0E9400
:10564000860E84E0EFE9F4E0DF01282E1D922A9413
:10565000E9F7E7E5F2E0DF011D928A95E9F780E0DE
:1056600090E00E945236873E9E4F21F40E948C1596
:10567000811102C00E94281782E090E00E94443607
:105680008093600284E090E00E9452369093EE0492
:105690008093ED040E94E729EFEFF6E721E0E15067
:1056A000F0402040E1F700C000000E94E72980910F
:1056B0009F0480FF14C06FEF7FEF80E090E00E94B6
:1056C00076360E94B01093B183B183FB882780F9AE
:1056D000880F92FB992790F9892B819398CF83E0CB
:1056E00090E00E9444360E94480B80E00E94F61A27
:1056F00080915B0281113AC080E090E00E945236B6
:10570000873E9E4F21F40E948C15811104C00E9497
:1057100028170E94AB1788E090E00E944C366093F7
:10572000E3047093E4048093E5049093E60462300C
:1057300070F40E94AB1788E090E00E944C366093B2
:10574000E3047093E4048093E5049093E6040E94DC
:10575000710F1092E2048091E30480FF04C060E0C6
:1057600086950E94982081E080935B0283E190E01F
:105770000E944C366093A6047093A7048093A804FB
:105780009093A90480911F01681751F0462F415052
:10579000550B4330510508F48BC081E080931F0105
:1057A0000E94731060938E0470938F048093900412
:1057B0009093910484E191E09093AB048093AA04C8
:1057C00077247394FAE08F2E912CA12CB12C809128
:1057D000A304853091F48091A304853009F471C04D
:1057E0000E94211D0E94E40F10925E0280915D02D2
:1057F00081110E94F8200E9482200E94E72901E680
:1058000012E0EFE9EE2EE4E0FE2E25E632E0D701CD
:10581000F80191918D912E173F0709F4BBC098179D
:10582000C1F3D12CF701C1907F01D8012D908D01DA
:105830002C1429F12C24612C33243394822D8321C0
:105840008823A9F06982DA8291E08C2D832181116D
:1058500001C090E09B830E94681B8160782F9D832C
:105860008C8349815A816B81892F0E943C296394E2
:10587000330CB3E06B12E2CFF8013197C082D394BE
:10588000E4E0DE12CFCF0E94731060938004709327
:1058900081048093820490938304609384047093C2
:1058A00085048093860490938704CC24C39477C0A6
:1058B00060931F01633009F073CF80E00E94F61AF5
:1058C0006FCF8091A304843009F43AC01092E204AF
:1058D00080915E0281110EC051E050935E02809172
:1058E000E304982F917090935D028E7F8093E30480
:1058F0000E943D120E94E31A10925C0288E190E03F
:10590000A0E40FB6F894A895809360000FBEA09312
:10591000600083B7817F846083BF83B7816083BF6A
:105920007894889583B78E7F83BF0FB6F894A89537
:1059300080916000886180936000109260000FBECB
:1059400080915F02882309F446CF0E94E729EFE99E
:10595000F4E083EA94E02191211104C08E179F079F
:10596000D1F739CF80E189BD82E189BD09B400FE5C
:10597000FDCF8091D8008F7D8093D8008091E0008A
:1059800082608093E0008091E00081FDFCCF0E9466
:10599000211D21CF981345CF0E94C129C12C809190
:1059A000E2048823C9F18091E104E091E304E695E3
:1059B000E81BE09367028230C9F5F0E0E65DFC4E3B
:1059C000E4910E2F10E07CEEE72E73E1F72E80912C
:1059D0006802882361F0109268020E94681B90930D
:1059E00066028093650210926A02109269020E9418
:1059F000681B2091650230916602821B930B8F3FDA
:105A00009F4750F4200F311F3093660220936502A8
:105A100085E692E0F7010995612CD12CA4E04A2E8D
:105A2000512CBDEF3B2E1CEF212EECC0863059F4DB
:105A3000F0E0E95DFC4EE4910E2F10E060E0E62E10
:105A400064E1F62EC4CF893061F4E695F0E0EC5DB8
:105A5000FC4EE4910E2F10E053EBE52E52E1F52EB3
:105A6000B6CF8F3061F4E695F0E0EF5DFC4EE49147
:105A70000E2F10E04DEDE42E42E1F42EA8CF85313B
:105A800059F4F0E0E25EFC4EE4910E2F10E03BE3AF
:105A9000E32E33E1F32E9BCF823249F4ECE1F3E1C4
:105AA000059114912AE9E22E23E1F22E90CF00ED28
:105AB00017E09FE9E92E9EE0F92E833209F087CFA7
:105AC00004EF11E082E7E82E82E1F82E80CF062D68
:105AD00010E093B183B183FB882780F9880F92FB94
